{
  "_format": "hh-sol-artifact-1",
  "contractName": "AnonymousAthleteSelection",
  "sourceName": "contracts/AnonymousAthleteSelection.sol",
  "abi": [
    {
      "inputs": [],
      "stateMutability": "nonpayable",
      "type": "constructor"
    },
    {
      "anonymous": false,
      "inputs": [
        {
          "indexed": true,
          "internalType": "address",
          "name": "athlete",
          "type": "address"
        },
        {
          "indexed": true,
          "internalType": "uint32",
          "name": "selectionId",
          "type": "uint32"
        }
      ],
      "name": "AthleteEvaluated",
      "type": "event"
    },
    {
      "anonymous": false,
      "inputs": [
        {
          "indexed": true,
          "internalType": "address",
          "name": "athlete",
          "type": "address"
        },
        {
          "indexed": true,
          "internalType": "uint32",
          "name": "selectionId",
          "type": "uint32"
        }
      ],
      "name": "AthleteRegistered",
      "type": "event"
    },
    {
      "anonymous": false,
      "inputs": [
        {
          "indexed": true,
          "internalType": "uint32",
          "name": "selectionId",
          "type": "uint32"
        },
        {
          "indexed": true,
          "internalType": "address",
          "name": "athlete",
          "type": "address"
        }
      ],
      "name": "AthleteSelected",
      "type": "event"
    },
    {
      "anonymous": false,
      "inputs": [
        {
          "indexed": true,
          "internalType": "uint32",
          "name": "selectionId",
          "type": "uint32"
        },
        {
          "indexed": false,
          "internalType": "uint256",
          "name": "selectedCount",
          "type": "uint256"
        }
      ],
      "name": "SelectionCompleted",
      "type": "event"
    },
    {
      "anonymous": false,
      "inputs": [
        {
          "indexed": true,
          "internalType": "uint32",
          "name": "selectionId",
          "type": "uint32"
        },
        {
          "indexed": false,
          "internalType": "string",
          "name": "sportCategory",
          "type": "string"
        },
        {
          "indexed": false,
          "internalType": "uint256",
          "name": "registrationDeadline",
          "type": "uint256"
        }
      ],
      "name": "SelectionProcessStarted",
      "type": "event"
    },
    {
      "inputs": [
        {
          "internalType": "address",
          "name": "evaluator",
          "type": "address"
        }
      ],
      "name": "addAuthorizedEvaluator",
      "outputs": [],
      "stateMutability": "nonpayable",
      "type": "function"
    },
    {
      "inputs": [
        {
          "internalType": "uint32",
          "name": "",
          "type": "uint32"
        },
        {
          "internalType": "address",
          "name": "",
          "type": "address"
        }
      ],
      "name": "athleteProfiles",
      "outputs": [
        {
          "internalType": "euint8",
          "name": "encryptedPerformanceScore",
          "type": "bytes32"
        },
        {
          "internalType": "euint8",
          "name": "encryptedFitnessLevel",
          "type": "bytes32"
        },
        {
          "internalType": "euint8",
          "name": "encryptedExperienceYears",
          "type": "bytes32"
        },
        {
          "internalType": "euint32",
          "name": "encryptedAge",
          "type": "bytes32"
        },
        {
          "internalType": "bool",
          "name": "isRegistered",
          "type": "bool"
        },
        {
          "internalType": "bool",
          "name": "isEvaluated",
          "type": "bool"
        },
        {
          "internalType": "uint256",
          "name": "registrationTime",
          "type": "uint256"
        }
      ],
      "stateMutability": "view",
      "type": "function"
    },
    {
      "inputs": [
        {
          "internalType": "address",
          "name": "",
          "type": "address"
        }
      ],
      "name": "authorizedEvaluators",
      "outputs": [
        {
          "internalType": "bool",
          "name": "",
          "type": "bool"
        }
      ],
      "stateMutability": "view",
      "type": "function"
    },
    {
      "inputs": [],
      "name": "currentSelectionId",
      "outputs": [
        {
          "internalType": "uint32",
          "name": "",
          "type": "uint32"
        }
      ],
      "stateMutability": "view",
      "type": "function"
    },
    {
      "inputs": [
        {
          "internalType": "address",
          "name": "athlete",
          "type": "address"
        }
      ],
      "name": "evaluateAthlete",
      "outputs": [],
      "stateMutability": "nonpayable",
      "type": "function"
    },
    {
      "inputs": [],
      "name": "evaluationDeadline",
      "outputs": [
        {
          "internalType": "uint256",
          "name": "",
          "type": "uint256"
        }
      ],
      "stateMutability": "view",
      "type": "function"
    },
    {
      "inputs": [],
      "name": "finalizeSelection",
      "outputs": [],
      "stateMutability": "nonpayable",
      "type": "function"
    },
    {
      "inputs": [],
      "name": "getCurrentSelectionDeadlines",
      "outputs": [
        {
          "internalType": "uint256",
          "name": "registrationEnd",
          "type": "uint256"
        },
        {
          "internalType": "uint256",
          "name": "evaluationEnd",
          "type": "uint256"
        }
      ],
      "stateMutability": "view",
      "type": "function"
    },
    {
      "inputs": [
        {
          "internalType": "uint32",
          "name": "selectionId",
          "type": "uint32"
        }
      ],
      "name": "getRegisteredAthletesCount",
      "outputs": [
        {
          "internalType": "uint256",
          "name": "",
          "type": "uint256"
        }
      ],
      "stateMutability": "view",
      "type": "function"
    },
    {
      "inputs": [
        {
          "internalType": "uint32",
          "name": "selectionId",
          "type": "uint32"
        }
      ],
      "name": "getSelectedAthletes",
      "outputs": [
        {
          "internalType": "address[]",
          "name": "",
          "type": "address[]"
        }
      ],
      "stateMutability": "view",
      "type": "function"
    },
    {
      "inputs": [
        {
          "internalType": "uint32",
          "name": "selectionId",
          "type": "uint32"
        }
      ],
      "name": "getSelectionInfo",
      "outputs": [
        {
          "internalType": "string",
          "name": "sportCategory",
          "type": "string"
        },
        {
          "internalType": "bool",
          "name": "isActive",
          "type": "bool"
        },
        {
          "internalType": "bool",
          "name": "isCompleted",
          "type": "bool"
        },
        {
          "internalType": "uint256",
          "name": "startTime",
          "type": "uint256"
        },
        {
          "internalType": "uint256",
          "name": "endTime",
          "type": "uint256"
        },
        {
          "internalType": "uint256",
          "name": "registeredCount",
          "type": "uint256"
        },
        {
          "internalType": "uint256",
          "name": "selectedCount",
          "type": "uint256"
        },
        {
          "internalType": "uint32",
          "name": "maxSelections",
          "type": "uint32"
        }
      ],
      "stateMutability": "view",
      "type": "function"
    },
    {
      "inputs": [
        {
          "internalType": "uint32",
          "name": "selectionId",
          "type": "uint32"
        },
        {
          "internalType": "address",
          "name": "athlete",
          "type": "address"
        }
      ],
      "name": "isAthleteEvaluated",
      "outputs": [
        {
          "internalType": "bool",
          "name": "",
          "type": "bool"
        }
      ],
      "stateMutability": "view",
      "type": "function"
    },
    {
      "inputs": [
        {
          "internalType": "uint32",
          "name": "selectionId",
          "type": "uint32"
        },
        {
          "internalType": "address",
          "name": "athlete",
          "type": "address"
        }
      ],
      "name": "isAthleteRegistered",
      "outputs": [
        {
          "internalType": "bool",
          "name": "",
          "type": "bool"
        }
      ],
      "stateMutability": "view",
      "type": "function"
    },
    {
      "inputs": [],
      "name": "protocolId",
      "outputs": [
        {
          "internalType": "uint256",
          "name": "",
          "type": "uint256"
        }
      ],
      "stateMutability": "pure",
      "type": "function"
    },
    {
      "inputs": [
        {
          "internalType": "uint8",
          "name": "performanceScore",
          "type": "uint8"
        },
        {
          "internalType": "uint8",
          "name": "fitnessLevel",
          "type": "uint8"
        },
        {
          "internalType": "uint8",
          "name": "experienceYears",
          "type": "uint8"
        },
        {
          "internalType": "uint32",
          "name": "age",
          "type": "uint32"
        }
      ],
      "name": "registerAthlete",
      "outputs": [],
      "stateMutability": "nonpayable",
      "type": "function"
    },
    {
      "inputs": [],
      "name": "registrationDeadline",
      "outputs": [
        {
          "internalType": "uint256",
          "name": "",
          "type": "uint256"
        }
      ],
      "stateMutability": "view",
      "type": "function"
    },
    {
      "inputs": [
        {
          "internalType": "address",
          "name": "evaluator",
          "type": "address"
        }
      ],
      "name": "removeAuthorizedEvaluator",
      "outputs": [],
      "stateMutability": "nonpayable",
      "type": "function"
    },
    {
      "inputs": [],
      "name": "selectionCommittee",
      "outputs": [
        {
          "internalType": "address",
          "name": "",
          "type": "address"
        }
      ],
      "stateMutability": "view",
      "type": "function"
    },
    {
      "inputs": [
        {
          "internalType": "uint32",
          "name": "",
          "type": "uint32"
        }
      ],
      "name": "selectionProcesses",
      "outputs": [
        {
          "internalType": "string",
          "name": "sportCategory",
          "type": "string"
        },
        {
          "internalType": "euint8",
          "name": "minPerformanceRequired",
          "type": "bytes32"
        },
        {
          "internalType": "euint8",
          "name": "minFitnessRequired",
          "type": "bytes32"
        },
        {
          "internalType": "euint8",
          "name": "minExperienceRequired",
          "type": "bytes32"
        },
        {
          "internalType": "euint32",
          "name": "maxAgeAllowed",
          "type": "bytes32"
        },
        {
          "internalType": "bool",
          "name": "isActive",
          "type": "bool"
        },
        {
          "internalType": "bool",
          "name": "isCompleted",
          "type": "bool"
        },
        {
          "internalType": "uint256",
          "name": "startTime",
          "type": "uint256"
        },
        {
          "internalType": "uint256",
          "name": "endTime",
          "type": "uint256"
        },
        {
          "internalType": "uint32",
          "name": "maxSelections",
          "type": "uint32"
        }
      ],
      "stateMutability": "view",
      "type": "function"
    },
    {
      "inputs": [
        {
          "internalType": "string",
          "name": "sportCategory",
          "type": "string"
        },
        {
          "internalType": "uint8",
          "name": "minPerformance",
          "type": "uint8"
        },
        {
          "internalType": "uint8",
          "name": "minFitness",
          "type": "uint8"
        },
        {
          "internalType": "uint8",
          "name": "minExperience",
          "type": "uint8"
        },
        {
          "internalType": "uint32",
          "name": "maxAge",
          "type": "uint32"
        },
        {
          "internalType": "uint32",
          "name": "maxSelections",
          "type": "uint32"
        },
        {
          "internalType": "uint256",
          "name": "registrationPeriodDays",
          "type": "uint256"
        },
        {
          "internalType": "uint256",
          "name": "evaluationPeriodDays",
          "type": "uint256"
        }
      ],
      "name": "startNewSelection",
      "outputs": [],
      "stateMutability": "nonpayable",
      "type": "function"
    }
  ],
  "bytecode": "0x608060405234801561000f575f80fd5b5061018a6100ae604080516080810182525f808252602082018190529181018290526060810191909152506040805160808101825273687820221192c5b662b25367f70076a37bc79b6c815273848b0066793bcc60346da1f49049357399b8d595602082015273a02cda4ca3a71d7c46997716f4283aa851c2881291810191909152731364cbbf2cdf5032c47d8226a6f6fbd2afcdacac606082015290565b80517f9e7b61f58c47dc699ac88507c4f5bb9f121c03808c5676a8078fe583e464970080546001600160a01b03199081166001600160a01b039384161790915560208301517f9e7b61f58c47dc699ac88507c4f5bb9f121c03808c5676a8078fe583e46497018054831691841691909117905560408301517f9e7b61f58c47dc699ac88507c4f5bb9f121c03808c5676a8078fe583e46497028054831691841691909117905560608301517f9e7b61f58c47dc699ac88507c4f5bb9f121c03808c5676a8078fe583e46497038054909216921691909117905550565b5f805463ffffffff60a01b19339081166001600160c01b031990921691909117600160a01b1782558152600560205260409020805460ff19166001179055611c78806101d55f395ff3fe608060405234801561000f575f80fd5b5060043610610127575f3560e01c8063769b8c8f116100a9578063da1f12ab1161006e578063da1f12ab14610389578063e41932c414610391578063ecdc25aa146103a4578063f1bf6532146103ad578063f3b9a17d146103cd575f80fd5b8063769b8c8f14610261578063771208a61461027c5780638f2007c51461028f578063a95d69e61461031f578063aeb7055a14610361575f80fd5b80633593bf06116100ef5780633593bf06146101b55780633ecf1cc2146101d85780634609718f1461020357806358de4dcb1461022557806365e491841461024e575f80fd5b8063111843921461012b57806319158cd714610147578063217b936c146101715780632bb89e061461017b57806331c603ef1461018e575b5f80fd5b61013460015481565b6040519081526020015b60405180910390f35b5f54610159906001600160a01b031681565b6040516001600160a01b03909116815260200161013e565b6101796103e0565b005b610179610189366004611646565b6105d7565b6101a161019c366004611672565b610623565b60405161013e9897969594939291906116ce565b6101c86101c336600461171e565b610729565b604051901515815260200161013e565b5f546101ee90600160a01b900463ffffffff1681565b60405163ffffffff909116815260200161013e565b6101c8610211366004611646565b60056020525f908152604090205460ff1681565b610238610233366004611672565b610763565b60405161013e9a9998979695949392919061174f565b61017961025c3660046117d4565b610844565b6001546002546040805192835260208301919091520161013e565b61017961028a366004611646565b610b85565b6102e661029d36600461171e565b600460208181525f9384526040808520909152918352912080546001820154600283015460038401549484015460059094015492949193909260ff808316926101009004169087565b60408051978852602088019690965294860193909352606085019190915215156080840152151560a083015260c082015260e00161013e565b6101c861032d36600461171e565b63ffffffff82165f9081526004602081815260408084206001600160a01b0386168552909152909120015460ff1692915050565b61013461036f366004611672565b63ffffffff165f9081526003602052604090206008015490565b612711610134565b61017961039f366004611646565b610e88565b61013460025481565b6103c06103bb366004611672565b610ed1565b60405161013e91906118e3565b6101796103db36600461192f565b610f44565b5f546001600160a01b031633146104125760405162461bcd60e51b815260040161040990611980565b60405180910390fd5b60025442116104635760405162461bcd60e51b815260206004820152601b60248201527f4576616c756174696f6e20706572696f64206e6f7420656e64656400000000006044820152606401610409565b5f8054600160a01b900463ffffffff1681526003602052604090206005015460ff166104a15760405162461bcd60e51b8152600401610409906119a8565b5f8054600160a01b900463ffffffff16815260036020526040902060050154610100900460ff16156105095760405162461bcd60e51b8152602060048201526011602482015270105b1c9958591e4818dbdb5c1b195d1959607a1b6044820152606401610409565b5f805463ffffffff600160a01b9182900481168352600360205260408084206005908101805460ff1916905584548490048316855281852001805461ff00191661010017905583549290920416808352918190206009015490517f78e822d8f83538ed14198995272877cbce125b58d816188c98218bc6cbeabee6916105929190815260200190565b60405180910390a25f8054600160a01b900463ffffffff169060146105b6836119ea565b91906101000a81548163ffffffff021916908363ffffffff16021790555050565b5f546001600160a01b031633146106005760405162461bcd60e51b815260040161040990611980565b6001600160a01b03165f908152600560205260409020805460ff19166001179055565b63ffffffff8082165f90815260036020526040812060058101546006820154600783015460088401546009850154600a86015486546060998998899889988998899889989497889760ff8087169861010090970416969495939492939190911690889061068f90611a0c565b80601f01602080910402602001604051908101604052809291908181526020018280546106bb90611a0c565b80156107065780601f106106dd57610100808354040283529160200191610706565b820191905f5260205f20905b8154815290600101906020018083116106e957829003601f168201915b505050505097509850985098509850985098509850985050919395975091939597565b63ffffffff82165f9081526004602081815260408084206001600160a01b03861685529091529091200154610100900460ff165b92915050565b60036020525f908152604090208054819061077d90611a0c565b80601f01602080910402602001604051908101604052809291908181526020018280546107a990611a0c565b80156107f45780601f106107cb576101008083540402835291602001916107f4565b820191905f5260205f20905b8154815290600101906020018083116107d757829003601f168201915b50505060018401546002850154600386015460048701546005880154600689015460078a0154600a909a015498999598949750929550909360ff8083169461010090930416929163ffffffff168a565b5f546001600160a01b0316331461086d5760405162461bcd60e51b815260040161040990611980565b5f8054600160a01b900463ffffffff1681526003602052604090206005015460ff16156108dc5760405162461bcd60e51b815260206004820152601f60248201527f50726576696f75732073656c656374696f6e207374696c6c20616374697665006044820152606401610409565b5f6108e68861124f565b90505f6108f28861124f565b90505f6108fe8861124f565b90505f61090a8861125e565b90506109198662015180611a44565b6109239042611a5b565b6001556109338562015180611a44565b6001546109409190611a5b565b6002819055506040518061018001604052808d81526020018581526020018481526020018381526020018281526020016001151581526020015f1515815260200142815260200160025481526020015f67ffffffffffffffff8111156109a8576109a86117b0565b6040519080825280602002602001820160405280156109d1578160200160208202803683370190505b5081526020015f604051908082528060200260200182016040528015610a01578160200160208202803683370190505b50815263ffffffff808a166020928301525f8054600160a01b9004909116815260039091526040902081518190610a389082611aba565b50602082810151600183015560408301516002830155606083015160038301556080830151600483015560a083015160058301805460c086015161ffff1990911692151561ff00191692909217610100921515830217905560e0840151600684015583015160078301556101208301518051610aba92600885019201906115bd565b506101408201518051610ad79160098401916020909101906115bd565b506101609190910151600a909101805463ffffffff191663ffffffff909216919091179055610b0584611270565b50610b0f83611270565b50610b1982611270565b50610b2381611270565b505f60149054906101000a900463ffffffff1663ffffffff167fdff777d1ada552cdf6725e9541e6554106a86f5cad3e34ebec6db441adc17d228d600154604051610b6f929190611b7a565b60405180910390a2505050505050505050505050565b335f9081526005602052604090205460ff16610be35760405162461bcd60e51b815260206004820152601860248201527f4e6f7420617574686f72697a6564206576616c7561746f7200000000000000006044820152606401610409565b5f8054600160a01b900463ffffffff16808252600360205260409091206005015460ff16610c235760405162461bcd60e51b8152600401610409906119a8565b60015442118015610c3657506002544211155b610c7a5760405162461bcd60e51b8152602060048201526015602482015274139bdd08195d985b1d585d1a5bdb881c195c9a5bd9605a1b6044820152606401610409565b5f8054600160a01b900463ffffffff1681526004602081815260408084206001600160a01b0387168552909152909120015460ff16610cf45760405162461bcd60e51b8152602060048201526016602482015275105d1a1b195d19481b9bdd081c9959da5cdd195c995960521b6044820152606401610409565b5f8054600160a01b900463ffffffff1681526004602081815260408084206001600160a01b03871685529091529091200154610100900460ff1615610d6f5760405162461bcd60e51b8152602060048201526011602482015270105b1c9958591e48195d985b1d585d1959607a1b6044820152606401610409565b5f8054600160a01b900463ffffffff168082526004602090815260408084206001600160a01b03871685528252808420928452600390915282208154600182015492939192610dbe919061127f565b90505f610dd38460010154846002015461127f565b90505f610de88560020154856003015461127f565b90505f610dfd866003015486600401546112b4565b90505f610e1c610e0d86866112e2565b610e1785856112e2565b6112e2565b60048801805461ff0019166101001790559050610e3881611270565b505f8054604051600160a01b90910463ffffffff16916001600160a01b038c16917f5a83e7f0c11abaafe6e879be260805e2f063d8e21b969f87407476e351ac483a9190a3505050505050505050565b5f546001600160a01b03163314610eb15760405162461bcd60e51b815260040161040990611980565b6001600160a01b03165f908152600560205260409020805460ff19169055565b63ffffffff81165f90815260036020908152604091829020600901805483518184028101840190945280845260609392830182828015610f3857602002820191905f5260205f20905b81546001600160a01b03168152600190910190602001808311610f1a575b50505050509050919050565b5f8054600160a01b900463ffffffff16808252600360205260409091206005015460ff16610f845760405162461bcd60e51b8152600401610409906119a8565b600154421115610fd65760405162461bcd60e51b815260206004820152601960248201527f526567697374726174696f6e20706572696f6420656e646564000000000000006044820152606401610409565b5f8054600160a01b900463ffffffff168152600460208181526040808420338552909152909120015460ff16156110445760405162461bcd60e51b8152602060048201526012602482015271105b1c9958591e481c9959da5cdd195c995960721b6044820152606401610409565b60648560ff161115801561105c575060648460ff1611155b61109f5760405162461bcd60e51b8152602060048201526014602482015273053636f726573206d75737420626520302d3130360641b6044820152606401610409565b5f6110a98661124f565b90505f6110b58661124f565b90505f6110c18661124f565b90505f6110cd8661125e565b6040805160e0810182528681526020808201878152828401878152606084018681526001608086018181525f60a088018181524260c08a01908152825463ffffffff600160a01b91829004811685526004808c528d862033808852908d528e87209d518e559a518d890155985160028d015596516003808d01919091559451978b018054935115156101000261ff00199915159990991661ffff199094169390931797909717909155516005909801979097558654939093049091168552908352938320600801805494850181558352912090910180546001600160a01b031916909117905590506111be84611270565b506111c883611270565b506111d282611270565b506111dc81611270565b506111e78433611310565b506111f28333611310565b506111fd8233611310565b506112088133611310565b505f8054604051600160a01b90910463ffffffff169133917fb3412ea1f94be471f9feca7710e1fb6a057d5a2891e54b404798809b68dcefaf9190a3505050505050505050565b5f61075d8260ff166002611322565b5f61075d8263ffffffff166004611322565b5f61127b82306113b9565b5090565b5f826112915761128e5f61124f565b92505b816112a25761129f5f61124f565b91505b6112ad83835f61142f565b9392505050565b5f826112c6576112c35f61125e565b92505b816112d7576112d45f61125e565b91505b6112ad83835f6114dc565b5f826112f4576112f15f61153f565b92505b81611305576113025f61153f565b91505b6112ad83835f61155a565b5f61131b83836113b9565b5090919050565b5f80516020611c0383398151915254604051639cd07acb60e01b81525f915f80516020611c23833981519152916001600160a01b0390911690639cd07acb906113719087908790600401611b9b565b6020604051808303815f875af115801561138d573d5f803e3d5ffd5b505050506040513d601f19601f820116820180604052508101906113b19190611bcb565b949350505050565b5f5f80516020611c238339815191528054604051635ca4b5b160e11b8152600481018690526001600160a01b03858116602483015292935091169063b9496b62906044015f604051808303815f87803b158015611414575f80fd5b505af1158015611426573d5f803e3d5ffd5b50505050505050565b5f8082156114425750600160f81b611445565b505f5b5f80516020611c0383398151915254604051631391547f60e01b81525f80516020611c23833981519152916001600160a01b031690631391547f9061149290899089908790600401611be2565b6020604051808303815f875af11580156114ae573d5f803e3d5ffd5b505050506040513d601f19601f820116820180604052508101906114d29190611bcb565b9695505050505050565b5f8082156114ef5750600160f81b6114f2565b505f5b5f80516020611c0383398151915254604051631d44e90160e21b81525f80516020611c23833981519152916001600160a01b031690637513a4049061149290899089908790600401611be2565b5f61075d8261154e575f611551565b60015b60ff165f611322565b5f80821561156d5750600160f81b611570565b505f5b5f80516020611c038339815191525460405163d99882d560e01b81525f80516020611c23833981519152916001600160a01b03169063d99882d59061149290899089908790600401611be2565b828054828255905f5260205f20908101928215611610579160200282015b8281111561161057825182546001600160a01b0319166001600160a01b039091161782556020909201916001909101906115db565b5061127b9291505b8082111561127b575f8155600101611618565b80356001600160a01b0381168114611641575f80fd5b919050565b5f60208284031215611656575f80fd5b6112ad8261162b565b803563ffffffff81168114611641575f80fd5b5f60208284031215611682575f80fd5b6112ad8261165f565b5f81518084525f5b818110156116af57602081850181015186830182015201611693565b505f602082860101526020601f19601f83011685010191505092915050565b5f6101008083526116e18184018c61168b565b9915156020840152505095151560408701526060860194909452608085019290925260a084015260c083015263ffffffff1660e090910152919050565b5f806040838503121561172f575f80fd5b6117388361165f565b91506117466020840161162b565b90509250929050565b5f6101408083526117628184018e61168b565b602084019c909c52505060408101989098526060880196909652608087019490945291151560a0860152151560c085015260e084015261010083015263ffffffff1661012090910152919050565b634e487b7160e01b5f52604160045260245ffd5b803560ff81168114611641575f80fd5b5f805f805f805f80610100898b0312156117ec575f80fd5b883567ffffffffffffffff80821115611803575f80fd5b818b0191508b601f830112611816575f80fd5b813581811115611828576118286117b0565b604051601f8201601f19908116603f01168101908382118183101715611850576118506117b0565b816040528281528e6020848701011115611868575f80fd5b826020860160208301375f60208483010152809c50505050505061188e60208a016117c4565b965061189c60408a016117c4565b95506118aa60608a016117c4565b94506118b860808a0161165f565b93506118c660a08a0161165f565b925060c0890135915060e089013590509295985092959890939650565b602080825282518282018190525f9190848201906040850190845b818110156119235783516001600160a01b0316835292840192918401916001016118fe565b50909695505050505050565b5f805f8060808587031215611942575f80fd5b61194b856117c4565b9350611959602086016117c4565b9250611967604086016117c4565b91506119756060860161165f565b905092959194509250565b6020808252600e908201526d139bdd08185d5d1a1bdc9a5e995960921b604082015260600190565b60208082526014908201527353656c656374696f6e206e6f742061637469766560601b604082015260600190565b634e487b7160e01b5f52601160045260245ffd5b5f63ffffffff808316818103611a0257611a026119d6565b6001019392505050565b600181811c90821680611a2057607f821691505b602082108103611a3e57634e487b7160e01b5f52602260045260245ffd5b50919050565b808202811582820484141761075d5761075d6119d6565b8082018082111561075d5761075d6119d6565b601f821115611ab557805f5260205f20601f840160051c81016020851015611a935750805b601f840160051c820191505b81811015611ab2575f8155600101611a9f565b50505b505050565b815167ffffffffffffffff811115611ad457611ad46117b0565b611ae881611ae28454611a0c565b84611a6e565b602080601f831160018114611b1b575f8415611b045750858301515b5f19600386901b1c1916600185901b178555611b72565b5f85815260208120601f198616915b82811015611b4957888601518255948401946001909101908401611b2a565b5085821015611b6657878501515f19600388901b60f8161c191681555b505060018460011b0185555b505050505050565b604081525f611b8c604083018561168b565b90508260208301529392505050565b8281526040810160548310611bbe57634e487b7160e01b5f52602160045260245ffd5b8260208301529392505050565b5f60208284031215611bdb575f80fd5b5051919050565b92835260208301919091526001600160f81b03191660408201526060019056fe9e7b61f58c47dc699ac88507c4f5bb9f121c03808c5676a8078fe583e46497019e7b61f58c47dc699ac88507c4f5bb9f121c03808c5676a8078fe583e4649700a26469706673582212208a22c9ee3461892ea8a5a1e21b97f3a96820c108a0973b02a04e8acd08c906f464736f6c63430008180033",
  "linkReferences": {},
  "deployedLinkReferences": {}
}